{
  "contractName": "CowPoop",
  "abi": [
    {
      "inputs": [
        {
          "internalType": "address",
          "name": "_admin",
          "type": "address"
        }
      ],
      "stateMutability": "nonpayable",
      "type": "constructor"
    },
    {
      "anonymous": false,
      "inputs": [
        {
          "indexed": true,
          "internalType": "address",
          "name": "_from",
          "type": "address"
        },
        {
          "indexed": false,
          "internalType": "uint256",
          "name": "_ts",
          "type": "uint256"
        },
        {
          "indexed": false,
          "internalType": "uint256",
          "name": "_now",
          "type": "uint256"
        }
      ],
      "name": "CreateLottery",
      "type": "event"
    },
    {
      "anonymous": false,
      "inputs": [
        {
          "indexed": true,
          "internalType": "address",
          "name": "_winner",
          "type": "address"
        },
        {
          "indexed": false,
          "internalType": "uint256",
          "name": "_prize",
          "type": "uint256"
        }
      ],
      "name": "Winner",
      "type": "event"
    },
    {
      "inputs": [],
      "name": "adminAddress",
      "outputs": [
        {
          "internalType": "address",
          "name": "",
          "type": "address"
        }
      ],
      "stateMutability": "view",
      "type": "function",
      "constant": true
    },
    {
      "inputs": [
        {
          "internalType": "uint256",
          "name": "",
          "type": "uint256"
        }
      ],
      "name": "lotteries",
      "outputs": [
        {
          "internalType": "uint256",
          "name": "lotteryId",
          "type": "uint256"
        },
        {
          "internalType": "enum CowPoop.Status",
          "name": "status",
          "type": "uint8"
        },
        {
          "internalType": "uint256",
          "name": "prizePool",
          "type": "uint256"
        },
        {
          "internalType": "uint256",
          "name": "costPerTicket",
          "type": "uint256"
        },
        {
          "internalType": "uint256",
          "name": "startingTimestamp",
          "type": "uint256"
        },
        {
          "internalType": "uint256",
          "name": "closingTimestamp",
          "type": "uint256"
        },
        {
          "internalType": "uint16",
          "name": "winningNumber",
          "type": "uint16"
        }
      ],
      "stateMutability": "view",
      "type": "function",
      "constant": true
    },
    {
      "inputs": [
        {
          "internalType": "uint256",
          "name": "_costPerTicket",
          "type": "uint256"
        },
        {
          "internalType": "uint256",
          "name": "_startingTimestamp",
          "type": "uint256"
        },
        {
          "internalType": "uint256",
          "name": "_closingTimestamp",
          "type": "uint256"
        }
      ],
      "name": "createNewLottery",
      "outputs": [
        {
          "internalType": "uint256",
          "name": "",
          "type": "uint256"
        }
      ],
      "stateMutability": "nonpayable",
      "type": "function"
    },
    {
      "inputs": [
        {
          "internalType": "uint256",
          "name": "_lotteryId",
          "type": "uint256"
        }
      ],
      "name": "poopTime",
      "outputs": [],
      "stateMutability": "nonpayable",
      "type": "function"
    },
    {
      "inputs": [
        {
          "internalType": "uint256",
          "name": "_lotteryId",
          "type": "uint256"
        }
      ],
      "name": "getPrize",
      "outputs": [
        {
          "internalType": "uint256",
          "name": "",
          "type": "uint256"
        }
      ],
      "stateMutability": "view",
      "type": "function",
      "constant": true
    },
    {
      "inputs": [],
      "name": "withdraw",
      "outputs": [],
      "stateMutability": "nonpayable",
      "type": "function"
    },
    {
      "inputs": [
        {
          "internalType": "uint256",
          "name": "_lotteryId",
          "type": "uint256"
        },
        {
          "internalType": "uint256",
          "name": "amount",
          "type": "uint256"
        },
        {
          "internalType": "uint256",
          "name": "position",
          "type": "uint256"
        }
      ],
      "name": "deposit",
      "outputs": [],
      "stateMutability": "payable",
      "type": "function",
      "payable": true
    },
    {
      "inputs": [
        {
          "internalType": "uint256",
          "name": "_lotteryId",
          "type": "uint256"
        }
      ],
      "name": "getLotteryPrizePool",
      "outputs": [
        {
          "internalType": "uint256",
          "name": "",
          "type": "uint256"
        }
      ],
      "stateMutability": "view",
      "type": "function",
      "constant": true
    },
    {
      "inputs": [],
      "name": "getBalance",
      "outputs": [
        {
          "internalType": "uint256",
          "name": "",
          "type": "uint256"
        }
      ],
      "stateMutability": "view",
      "type": "function",
      "constant": true
    },
    {
      "inputs": [
        {
          "internalType": "uint256",
          "name": "_lotteryId",
          "type": "uint256"
        },
        {
          "internalType": "uint256",
          "name": "position",
          "type": "uint256"
        }
      ],
      "name": "getPlayersCountAt",
      "outputs": [
        {
          "internalType": "uint256",
          "name": "",
          "type": "uint256"
        }
      ],
      "stateMutability": "view",
      "type": "function",
      "constant": true
    }
  ],
  "bytecode": "0x608060405234801561001057600080fd5b50604051620011633803806200116383398181016040528101906100349190610097565b806000806101000a81548173ffffffffffffffffffffffffffffffffffffffff021916908373ffffffffffffffffffffffffffffffffffffffff160217905550600060028190555050610109565b600081519050610091816100f2565b92915050565b6000602082840312156100a957600080fd5b60006100b784828501610082565b91505092915050565b60006100cb826100d2565b9050919050565b600073ffffffffffffffffffffffffffffffffffffffff82169050919050565b6100fb816100c0565b811461010657600080fd5b50565b61104a80620001196000396000f3fe6080604052600436106100905760003560e01c8063a1099bf211610059578063a1099bf214610173578063b808445d146101b0578063e438857c146101ed578063fc6f94681461022a578063ff63f8ab1461025557610090565b8062aeef8a1461009557806312065fe0146100b15780631398e076146100dc5780631591dbc11461011f5780633ccfd60b1461015c575b600080fd5b6100af60048036038101906100aa9190610bb1565b61027e565b005b3480156100bd57600080fd5b506100c6610461565b6040516100d39190610ebd565b60405180910390f35b3480156100e857600080fd5b5061010360048036038101906100fe9190610b4c565b610469565b6040516101169796959493929190610ed8565b60405180910390f35b34801561012b57600080fd5b5061014660048036038101906101419190610b4c565b6104c6565b6040516101539190610ebd565b60405180910390f35b34801561016857600080fd5b506101716104e6565b005b34801561017f57600080fd5b5061019a60048036038101906101959190610b4c565b61052f565b6040516101a79190610ebd565b60405180910390f35b3480156101bc57600080fd5b506101d760048036038101906101d29190610b75565b61054f565b6040516101e49190610ebd565b60405180910390f35b3480156101f957600080fd5b50610214600480360381019061020f9190610bb1565b610584565b6040516102219190610ebd565b60405180910390f35b34801561023657600080fd5b5061023f61079a565b60405161024c9190610de2565b60405180910390f35b34801561026157600080fd5b5061027c60048036038101906102779190610b4c565b6107be565b005b8134146102c0576040517f08c379a00000000000000000000000000000000000000000000000000000000081526004016102b790610dfd565b60405180910390fd5b600060038111156102cd57fe5b6001600085815260200190815260200160002060010160009054906101000a900460ff1660038111156102fc57fe5b1415610358574260016000858152602001908152602001600020600401541061035757600180600085815260200190815260200160002060010160006101000a81548160ff0219169083600381111561035157fe5b02179055505b5b6001600381111561036557fe5b6001600085815260200190815260200160002060010160009054906101000a900460ff16600381111561039457fe5b146103d4576040517f08c379a00000000000000000000000000000000000000000000000000000000081526004016103cb90610e1d565b60405180910390fd5b600160008481526020019081526020016000206007016000828152602001908152602001600020339080600181540180825580915050600190039060005260206000200160009091909190916101000a81548173ffffffffffffffffffffffffffffffffffffffff021916908373ffffffffffffffffffffffffffffffffffffffff160217905550505050565b600047905090565b60016020528060005260406000206000915090508060000154908060010160009054906101000a900460ff16908060020154908060030154908060040154908060050154908060060160009054906101000a900461ffff16905087565b600060016000838152602001908152602001600020600201549050919050565b3373ffffffffffffffffffffffffffffffffffffffff166108fc479081150290604051600060405180830381858888f1935050505015801561052c573d6000803e3d6000fd5b50565b600060016000838152602001908152602001600020600201549050919050565b600060016000848152602001908152602001600020600701600083815260200190815260200160002080549050905092915050565b60008060009054906101000a900473ffffffffffffffffffffffffffffffffffffffff1673ffffffffffffffffffffffffffffffffffffffff163373ffffffffffffffffffffffffffffffffffffffff1614610615576040517f08c379a000000000000000000000000000000000000000000000000000000000815260040161060c90610e5d565b60405180910390fd5b6000841415610659576040517f08c379a000000000000000000000000000000000000000000000000000000000815260040161065090610e7d565b60405180910390fd5b6000831415801561066957508183105b6106a8576040517f08c379a000000000000000000000000000000000000000000000000000000000815260040161069f90610e9d565b60405180910390fd5b3373ffffffffffffffffffffffffffffffffffffffff167feedae7e1339db805ed1586e1f7ae34c405bd28953eb6892997b3436609f590db84426040516106f0929190610f47565b60405180910390a26001600254016002819055506000600254905060004285101561071e5760019050610723565b600090505b6000600160008481526020019081526020016000209050828160000181905550818160010160006101000a81548160ff0219169083600381111561076357fe5b0217905550600081600201819055508681600301819055508581600401819055508481600501819055508293505050509392505050565b60008054906101000a900473ffffffffffffffffffffffffffffffffffffffff1681565b60008054906101000a900473ffffffffffffffffffffffffffffffffffffffff1673ffffffffffffffffffffffffffffffffffffffff163373ffffffffffffffffffffffffffffffffffffffff161461084c576040517f08c379a000000000000000000000000000000000000000000000000000000000815260040161084390610e5d565b60405180910390fd5b60006002905042600160008481526020019081526020016000206005015411156108ab576040517f08c379a00000000000000000000000000000000000000000000000000000000081526004016108a290610e3d565b60405180910390fd5b600160038111156108b857fe5b6001600084815260200190815260200160002060010160009054906101000a900460ff1660038111156108e757fe5b14610927576040517f08c379a000000000000000000000000000000000000000000000000000000000815260040161091e90610e1d565b60405180910390fd5b60026001600084815260200190815260200160002060010160006101000a81548160ff0219169083600381111561095a57fe5b02179055506060600160008481526020019081526020016000206007016000838152602001908152602001600020805480602002602001604051908101604052809291908181526020018280548015610a0857602002820191906000526020600020905b8160009054906101000a900473ffffffffffffffffffffffffffffffffffffffff1673ffffffffffffffffffffffffffffffffffffffff16815260200190600101908083116109be575b505050505090506000479050600082518281610a2057fe5b04905060005b8351811015610af757838181518110610a3b57fe5b602002602001015173ffffffffffffffffffffffffffffffffffffffff167f9c2270628a9b29d30ae96b6c4c14ed646ee134febdce38a5b77f2bde9cea2e2083604051610a889190610ebd565b60405180910390a2838181518110610a9c57fe5b602002602001015173ffffffffffffffffffffffffffffffffffffffff166108fc839081150290604051600060405180830381858888f19350505050158015610ae9573d6000803e3d6000fd5b508080600101915050610a26565b5060036001600087815260200190815260200160002060010160006101000a81548160ff02191690836003811115610b2b57fe5b02179055505050505050565b600081359050610b4681610ffd565b92915050565b600060208284031215610b5e57600080fd5b6000610b6c84828501610b37565b91505092915050565b60008060408385031215610b8857600080fd5b6000610b9685828601610b37565b9250506020610ba785828601610b37565b9150509250929050565b600080600060608486031215610bc657600080fd5b6000610bd486828701610b37565b9350506020610be586828701610b37565b9250506040610bf686828701610b37565b9150509250925092565b610c0981610f81565b82525050565b610c1881610fde565b82525050565b6000610c2b601183610f70565b91507f616d6f756e7420697320696e76616c69640000000000000000000000000000006000830152602082019050919050565b6000610c6b601383610f70565b91507f4c6f7474657279206973206e6f74206f70656e000000000000000000000000006000830152602082019050919050565b6000610cab602983610f70565b91507f43616e6e6f74207365742077696e6e696e67206e756d6265727320647572696e60008301527f67206c6f747465727900000000000000000000000000000000000000000000006020830152604082019050919050565b6000610d11600b83610f70565b91507f61646d696e3a207775743f0000000000000000000000000000000000000000006000830152602082019050919050565b6000610d51601083610f70565b91507f436f73742063616e6e6f742062652030000000000000000000000000000000006000830152602082019050919050565b6000610d91601e83610f70565b91507f54696d657374616d707320666f72206c6f747465727920696e76616c696400006000830152602082019050919050565b610dcd81610fa6565b82525050565b610ddc81610fd4565b82525050565b6000602082019050610df76000830184610c00565b92915050565b60006020820190508181036000830152610e1681610c1e565b9050919050565b60006020820190508181036000830152610e3681610c5e565b9050919050565b60006020820190508181036000830152610e5681610c9e565b9050919050565b60006020820190508181036000830152610e7681610d04565b9050919050565b60006020820190508181036000830152610e9681610d44565b9050919050565b60006020820190508181036000830152610eb681610d84565b9050919050565b6000602082019050610ed26000830184610dd3565b92915050565b600060e082019050610eed600083018a610dd3565b610efa6020830189610c0f565b610f076040830188610dd3565b610f146060830187610dd3565b610f216080830186610dd3565b610f2e60a0830185610dd3565b610f3b60c0830184610dc4565b98975050505050505050565b6000604082019050610f5c6000830185610dd3565b610f696020830184610dd3565b9392505050565b600082825260208201905092915050565b6000610f8c82610fb4565b9050919050565b6000819050610fa182610ff0565b919050565b600061ffff82169050919050565b600073ffffffffffffffffffffffffffffffffffffffff82169050919050565b6000819050919050565b6000610fe982610f93565b9050919050565b60048110610ffa57fe5b50565b61100681610fd4565b811461101157600080fd5b5056fea2646970667358221220a4b353f84eab484085accc0dadded4a82e3c0dbae48d6a96b527a5ec308c65d164736f6c63430007000033",
  "immutableReferences": {},
  "source": "// SPDX-License-Identifier: MIT\npragma solidity >=0.7.0 <0.8.0;\npragma experimental ABIEncoderV2;\n\n// I'm just trying to learn solidity! Sorry for the messi code, I'm trying stuff\n\n// https://github.com/PatrickAlphaC/chainlink_defi/blob/master/src/components/App.js\n/**\n * \n * https://github.com/paulrberg/create-eth-app\n * https://www.dappuniversity.com/\n */\n \n // https://github.com/pancakeswap/lottery-contract/blob/master/contracts/Lottery.sol\n\n// https://blog.chain.link/random-number-generation-solidity/\n// https://docs.chain.link/docs/fund-your-contract\ncontract CowPoop {\n    address public adminAddress;\n    \n     // Represents the status of the lottery\n    enum Status { \n        NotStarted,     // The lottery has not started yet\n        Open,           // The lottery is open for ticket purchases \n        Closed,         // The lottery is no longer open for ticket purchases\n        Completed       // The lottery has been closed and the numbers drawn\n    }\n    \n    struct Lottery {\n        uint256 lotteryId;\n        Status status;\n        uint256 prizePool;\n        uint256 costPerTicket;\n        uint256 startingTimestamp;      // Block timestamp for star of lotto\n        uint256 closingTimestamp;       // Block timestamp for end of entries\n        uint16 winningNumber;     // The winning number\n        mapping(uint256 => address payable[]) field; // the field containing the position of players\n    }\n    \n    // Lottery ID's to info\n    mapping(uint256 => Lottery) public lotteries;\n\n    // Counter for lottery IDs \n    uint256 private lotteryIdCounter_;\n    \n    event CreateLottery(address indexed _from, uint256 _ts, uint256 _now);\n    \n    // event when sending the prize to the winner\n    event Winner(address indexed _winner, uint _prize);\n    \n    constructor(address _admin) {\n        adminAddress = _admin;\n        lotteryIdCounter_ = 0;\n    }\n    \n    modifier onlyAdmin() {\n        require(msg.sender == adminAddress, \"admin: wut?\");\n        _;\n    }\n    \n    function createNewLottery (uint256 _costPerTicket, uint256 _startingTimestamp, uint256 _closingTimestamp) public onlyAdmin returns(uint256) {\n        require( _costPerTicket != 0,  \"Cost cannot be 0\");\n        require(_startingTimestamp != 0 && _startingTimestamp < _closingTimestamp, \"Timestamps for lottery invalid\");\n        \n        emit CreateLottery(msg.sender, _startingTimestamp, block.timestamp);\n        \n        // Incrementing lottery ID \n        lotteryIdCounter_ = lotteryIdCounter_ + 1;\n        uint256 lotteryId = lotteryIdCounter_;\n        Status lotteryStatus;\n        \n        if (_startingTimestamp < block.timestamp) {\n            lotteryStatus = Status.Open;\n        } else {\n            lotteryStatus = Status.NotStarted;\n        }\n        \n        Lottery storage newLottery = lotteries[lotteryId];\n        newLottery.lotteryId = lotteryId;\n        newLottery.status = lotteryStatus;\n        newLottery.prizePool = 0;\n        newLottery.costPerTicket = _costPerTicket;\n        newLottery.startingTimestamp = _startingTimestamp;\n        newLottery.closingTimestamp = _closingTimestamp;\n        \n        return lotteryId;\n    }\n    \n    \n    // https://medium.com/@tiagobertolo/how-to-safely-generate-random-numbers-in-solidity-contracts-bd8bd217ff7b\n    // random https://github.com/wheelspinio/wheelspin-io-contracts\n    function poopTime(uint256 _lotteryId) public onlyAdmin {\n        uint winnerPosition = 2; // todo random\n        \n        require(lotteries[_lotteryId].closingTimestamp <= block.timestamp, \"Cannot set winning numbers during lottery\");\n        require(lotteries[_lotteryId].status == Status.Open, \"Lottery is not open\");\n        lotteries[_lotteryId].status = Status.Closed;\n        \n        address payable[] memory winners = lotteries[_lotteryId].field[winnerPosition];\n        uint balance = address(this).balance;\n        uint prizePerWinner = balance / winners.length;\n        for (uint256 i = 0; i < winners.length; i++) {\n            emit Winner(winners[i], prizePerWinner);\n            winners[i].transfer(prizePerWinner);\n        }\n        lotteries[_lotteryId].status = Status.Completed;\n    }\n    \n    function getPrize(uint256 _lotteryId) view public returns(uint) {\n        return lotteries[_lotteryId].prizePool;\n    }\n    \n    function withdraw() public {\n        msg.sender.transfer(address(this).balance);\n    }\n\n    /**\n     * it’s a better practice to have the function take as a parameter the amount \n     * to be transferred and then to test that that’s the actual amount transferred. \n     * This allows the contract to reject transactions that may be erroneous:\n     */\n    function deposit(uint256 _lotteryId, uint256 amount, uint256 position) payable public {\n        require(msg.value == amount, \"amount is invalid\");\n        // https://programtheblockchain.com/posts/2017/12/15/writing-a-contract-that-handles-ether/\n        \n        if (lotteries[_lotteryId].status == Status.NotStarted) {\n            if (lotteries[_lotteryId].startingTimestamp >= block.timestamp) {\n                lotteries[_lotteryId].status = Status.Open;\n            }\n        }\n        \n        require(lotteries[_lotteryId].status == Status.Open, \"Lottery is not open\");\n        lotteries[_lotteryId].field[position].push(msg.sender);\n    }\n    \n    function getLotteryPrizePool(uint256 _lotteryId) view public returns (uint256) {\n        return lotteries[_lotteryId].prizePool;\n    }\n    \n    function getBalance() public view returns (uint256) {\n        return address(this).balance;\n    }\n    \n    function getPlayersCountAt(uint256 _lotteryId, uint256 position) view public returns (uint256) {\n        return lotteries[_lotteryId].field[position].length;\n    }\n    \n    // function getMyNumber(uint256 _lotteryId) view public returns (uint256) {\n    //     for (uint256 i = 0; i < lotteries[_lotteryId].players.length; i++) {\n    //         if (lotteries[_lotteryId].players[i] == msg.sender) {\n    //             return i;\n    //         }\n    //     }\n    //     return 0; // todo return some kind of error\n    // }\n}",
  "sourcePath": "/home/dalf/workspace/cowpoop/contracts/CowPoop.sol",
  "compiler": {
    "name": "solc",
    "version": "0.7.0+commit.9e61f92b.Emscripten.clang"
  },
  "schemaVersion": "3.3.4",
  "updatedAt": "2021-04-23T11:26:37.384Z",
  "networkType": "ethereum",
  "devdoc": {
    "kind": "dev",
    "methods": {},
    "version": 1
  },
  "userdoc": {
    "kind": "user",
    "methods": {
      "deposit(uint256,uint256,uint256)": {
        "notice": "it’s a better practice to have the function take as a parameter the amount  to be transferred and then to test that that’s the actual amount transferred.  This allows the contract to reject transactions that may be erroneous:"
      }
    },
    "notice": " https://github.com/paulrberg/create-eth-app https://www.dappuniversity.com/",
    "version": 1
  }
}